:1002F40002100000020A0000020C000002120000BA
:10030400020E000002080000C102C103C100C101C5
:10000300E4FDFCC3ED9FEC9E5015E4FBFA0BBB0033
:0F001300010ABA01F8BBF4F50DBD00010C80E441
:0100220022BB
:03002300020026B2
:10002600C0E0C083C082C0D075D000C000C006C08A
:0100360007C2
:100037002098030201C0C298AF997E00859914EEFB
:100047006003020163EFB41F0040030201639000E5
:100057005CF82828730200B90200C20200CB020034
:10006700D40200DD0200E50200ED0200F50200FD0A
:1000770002010102010502010902010D0201150237
:10008700011D02012502012902012D020131020190
:100097003502013902013D020141020145020149D0
:1000A70002014D02015102015502015902015D028F
:1000B7000161750C00750D00020163750C00750D6B
:1000C70001020163750C00750D02020163751200D0
:1000D700751300020163751200751301807E751296
:1000E700007513028076750E00750F00806E750E11
:1000F70000750F018066C2028062D202805EC20371
:10010700805AD2038056750800750900804E75081D
:10011700007509018046750800750902803EC20016
:10012700803AD2008036C2018032D201802ED2A618
:10013700802AC2A68026D2A58022C2A5801ED2A46C
:10014700801AC2A48016D2A38012C2A3800ED2A2A4
:10015700800AC2A28006D2A18002C2A1E50C701C4F
:10016700E50D14600D14601024027010D280D28146
:10017700800AC280D2818004C280C281E512701CCD
:10018700E51314600D14601024027010D287D2A7F3
:10019700800AC287D2A78004C287C2A7E50FF4FFEF
:1001A700E50EF44F24FF9282200203300304C28538
:0901B7008002D285A203B39286F6
:0F01C000D007D006D000D0D0D082D083D0E0328C
:10031500759850438920758DFD758BFDD28ED2AFB2
:03032500D2AC2235
:1001CF00D280D281D282D283D284D285D286D28774
:1001DF00D2A7D2A6D2A5D2A4D2A3D2A2D2A1D2A064
:1001EF0012031530000CE510451124FF9283928401
:1001FF008023D283D284E508701BE50924FE600DAD
:10020F00047012E510451124FF92838008E5104514
:10021F001124FF9284200303300111D3E50B9401C5
:10022F00E50A94004003D38001C392A02003052068
:10023F000102D2A07FF47E011200036311FF63104D
:10024F00FF050BE50B7002050AC39403E50A940042
:09025F004091E4F50AF50B808AD8
:0300000002026891
:0C026800787FE4F6D8FD7581200202AF1B
:100274000201CFE493A3F8E493A34003F68001F2D0
:1002840008DFF48029E493A3F85407240CC8C3338B
:10029400C4540F4420C8834004F456800146F6DF5A
:1002A400E4800B01020408102040809002F4E47EF4
:1002B400019360BCA3FF543F30E509541FFEE4934F
:1002C400A360010ECF54C025E060A840B8E493A316
:1002D400FAE493A3F8E493A3C8C582C8CAC583CA41
:1002E400F0A3C8C582C8CAC583CADFE9DEE780BEF9
:0103140000E8
:00000001FF
